{
  "_format": "hh-sol-artifact-1",
  "contractName": "BlockJournal",
  "sourceName": "contracts/BlockJournal.sol",
  "abi": [
    {
      "inputs": [],
      "stateMutability": "payable",
      "type": "constructor"
    },
    {
      "anonymous": false,
      "inputs": [
        {
          "indexed": true,
          "internalType": "address",
          "name": "from",
          "type": "address"
        },
        {
          "indexed": false,
          "internalType": "uint256",
          "name": "timestamp",
          "type": "uint256"
        },
        {
          "indexed": false,
          "internalType": "string",
          "name": "message",
          "type": "string"
        }
      ],
      "name": "NewJournal",
      "type": "event"
    },
    {
      "inputs": [],
      "name": "getAllJournals",
      "outputs": [
        {
          "components": [
            {
              "internalType": "address",
              "name": "journaler",
              "type": "address"
            },
            {
              "internalType": "string",
              "name": "message",
              "type": "string"
            },
            {
              "internalType": "uint256",
              "name": "timestamp",
              "type": "uint256"
            }
          ],
          "internalType": "struct BlockJournal.Journal[]",
          "name": "",
          "type": "tuple[]"
        }
      ],
      "stateMutability": "view",
      "type": "function"
    },
    {
      "inputs": [],
      "name": "getTotalJournals",
      "outputs": [
        {
          "internalType": "uint256",
          "name": "",
          "type": "uint256"
        }
      ],
      "stateMutability": "view",
      "type": "function"
    },
    {
      "inputs": [
        {
          "internalType": "string",
          "name": "_message",
          "type": "string"
        }
      ],
      "name": "journal",
      "outputs": [],
      "stateMutability": "nonpayable",
      "type": "function"
    }
  ],
  "bytecode": "0x6080604052620000336040518060600160405280602e815260200162001239602e91396200003960201b620004a61760201c565b620001c3565b620000d9816040516024016200005091906200019f565b6040516020818303038152906040527f41304fac000000000000000000000000000000000000000000000000000000007bffffffffffffffffffffffffffffffffffffffffffffffffffffffff19166020820180517bffffffffffffffffffffffffffffffffffffffffffffffffffffffff8381831617835250505050620000dc60201b60201c565b50565b60008151905060006a636f6e736f6c652e6c6f679050602083016000808483855afa5050505050565b600081519050919050565b600082825260208201905092915050565b60005b838110156200014157808201518184015260208101905062000124565b60008484015250505050565b6000601f19601f8301169050919050565b60006200016b8262000105565b62000177818562000110565b93506200018981856020860162000121565b62000194816200014d565b840191505092915050565b60006020820190508181036000830152620001bb81846200015e565b905092915050565b61106680620001d36000396000f3fe608060405234801561001057600080fd5b50600436106100415760003560e01c80630fea6b39146100465780639cb45fe614610064578063a9d59a5414610080575b600080fd5b61004e61009e565b60405161005b91906106b9565b60405180910390f35b61007e6004803603810190610079919061082e565b6100e9565b005b610088610355565b6040516100959190610a58565b60405180910390f35b60006100e16040518060400160405280601281526020017f256420746f74616c206a6f75726e616c7321000000000000000000000000000081525060005461053f565b600054905090565b60016000808282546100fb9190610aa9565b925050819055506101416040518060400160405280601181526020017f257320686173206a6f75726e616c656421000000000000000000000000000000815250336105db565b600160405180606001604052803373ffffffffffffffffffffffffffffffffffffffff16815260200183815260200142815250908060018154018082558091505060019003906000526020600020906003020160009091909190915060008201518160000160006101000a81548173ffffffffffffffffffffffffffffffffffffffff021916908373ffffffffffffffffffffffffffffffffffffffff16021790555060208201518160010190816101f99190610ce9565b506040820151816002015550503373ffffffffffffffffffffffffffffffffffffffff167fbc1eeae76ffef3d2ebe546f37653528ccff3e3ad0773a4e36c7e0d09fb5d2d3b428360405161024e929190610e05565b60405180910390a26000655af3107a40009050478111156102a4576040517f08c379a000000000000000000000000000000000000000000000000000000000815260040161029b90610ea7565b60405180910390fd5b60003373ffffffffffffffffffffffffffffffffffffffff16826040516102ca90610ef8565b60006040518083038185875af1925050503d8060008114610307576040519150601f19603f3d011682016040523d82523d6000602084013e61030c565b606091505b5050905080610350576040517f08c379a000000000000000000000000000000000000000000000000000000000815260040161034790610f7f565b60405180910390fd5b505050565b60606001805480602002602001604051908101604052809291908181526020016000905b8282101561049d57838290600052602060002090600302016040518060600160405290816000820160009054906101000a900473ffffffffffffffffffffffffffffffffffffffff1673ffffffffffffffffffffffffffffffffffffffff1673ffffffffffffffffffffffffffffffffffffffff16815260200160018201805461040290610b0c565b80601f016020809104026020016040519081016040528092919081815260200182805461042e90610b0c565b801561047b5780601f106104505761010080835404028352916020019161047b565b820191906000526020600020905b81548152906001019060200180831161045e57829003601f168201915b5050505050815260200160028201548152505081526020019060010190610379565b50505050905090565b61053c816040516024016104ba9190610f9f565b6040516020818303038152906040527f41304fac000000000000000000000000000000000000000000000000000000007bffffffffffffffffffffffffffffffffffffffffffffffffffffffff19166020820180517bffffffffffffffffffffffffffffffffffffffffffffffffffffffff8381831617835250505050610677565b50565b6105d78282604051602401610555929190610fc1565b6040516020818303038152906040527fb60e72cc000000000000000000000000000000000000000000000000000000007bffffffffffffffffffffffffffffffffffffffffffffffffffffffff19166020820180517bffffffffffffffffffffffffffffffffffffffffffffffffffffffff8381831617835250505050610677565b5050565b61067382826040516024016105f1929190611000565b6040516020818303038152906040527f319af333000000000000000000000000000000000000000000000000000000007bffffffffffffffffffffffffffffffffffffffffffffffffffffffff19166020820180517bffffffffffffffffffffffffffffffffffffffffffffffffffffffff8381831617835250505050610677565b5050565b60008151905060006a636f6e736f6c652e6c6f679050602083016000808483855afa5050505050565b6000819050919050565b6106b3816106a0565b82525050565b60006020820190506106ce60008301846106aa565b92915050565b6000604051905090565b600080fd5b600080fd5b600080fd5b600080fd5b6000601f19601f8301169050919050565b7f4e487b7100000000000000000000000000000000000000000000000000000000600052604160045260246000fd5b61073b826106f2565b810181811067ffffffffffffffff8211171561075a57610759610703565b5b80604052505050565b600061076d6106d4565b90506107798282610732565b919050565b600067ffffffffffffffff82111561079957610798610703565b5b6107a2826106f2565b9050602081019050919050565b82818337600083830152505050565b60006107d16107cc8461077e565b610763565b9050828152602081018484840111156107ed576107ec6106ed565b5b6107f88482856107af565b509392505050565b600082601f830112610815576108146106e8565b5b81356108258482602086016107be565b91505092915050565b600060208284031215610844576108436106de565b5b600082013567ffffffffffffffff811115610862576108616106e3565b5b61086e84828501610800565b91505092915050565b600081519050919050565b600082825260208201905092915050565b6000819050602082019050919050565b600073ffffffffffffffffffffffffffffffffffffffff82169050919050565b60006108ce826108a3565b9050919050565b6108de816108c3565b82525050565b600081519050919050565b600082825260208201905092915050565b60005b8381101561091e578082015181840152602081019050610903565b60008484015250505050565b6000610935826108e4565b61093f81856108ef565b935061094f818560208601610900565b610958816106f2565b840191505092915050565b61096c816106a0565b82525050565b600060608301600083015161098a60008601826108d5565b50602083015184820360208601526109a2828261092a565b91505060408301516109b76040860182610963565b508091505092915050565b60006109ce8383610972565b905092915050565b6000602082019050919050565b60006109ee82610877565b6109f88185610882565b935083602082028501610a0a85610893565b8060005b85811015610a465784840389528151610a2785826109c2565b9450610a32836109d6565b925060208a01995050600181019050610a0e565b50829750879550505050505092915050565b60006020820190508181036000830152610a7281846109e3565b905092915050565b7f4e487b7100000000000000000000000000000000000000000000000000000000600052601160045260246000fd5b6000610ab4826106a0565b9150610abf836106a0565b9250828201905080821115610ad757610ad6610a7a565b5b92915050565b7f4e487b7100000000000000000000000000000000000000000000000000000000600052602260045260246000fd5b60006002820490506001821680610b2457607f821691505b602082108103610b3757610b36610add565b5b50919050565b60008190508160005260206000209050919050565b60006020601f8301049050919050565b600082821b905092915050565b600060088302610b9f7fffffffffffffffffffffffffffffffffffffffffffffffffffffffffffffffff82610b62565b610ba98683610b62565b95508019841693508086168417925050509392505050565b6000819050919050565b6000610be6610be1610bdc846106a0565b610bc1565b6106a0565b9050919050565b6000819050919050565b610c0083610bcb565b610c14610c0c82610bed565b848454610b6f565b825550505050565b600090565b610c29610c1c565b610c34818484610bf7565b505050565b5b81811015610c5857610c4d600082610c21565b600181019050610c3a565b5050565b601f821115610c9d57610c6e81610b3d565b610c7784610b52565b81016020851015610c86578190505b610c9a610c9285610b52565b830182610c39565b50505b505050565b600082821c905092915050565b6000610cc060001984600802610ca2565b1980831691505092915050565b6000610cd98383610caf565b9150826002028217905092915050565b610cf2826108e4565b67ffffffffffffffff811115610d0b57610d0a610703565b5b610d158254610b0c565b610d20828285610c5c565b600060209050601f831160018114610d535760008415610d41578287015190505b610d4b8582610ccd565b865550610db3565b601f198416610d6186610b3d565b60005b82811015610d8957848901518255600182019150602085019450602081019050610d64565b86831015610da65784890151610da2601f891682610caf565b8355505b6001600288020188555050505b505050505050565b600082825260208201905092915050565b6000610dd7826108e4565b610de18185610dbb565b9350610df1818560208601610900565b610dfa816106f2565b840191505092915050565b6000604082019050610e1a60008301856106aa565b8181036020830152610e2c8184610dcc565b90509392505050565b7f547279696e6720746f207769746864726177206d6f7265206d6f6e657920746860008201527f616e2074686520636f6e7472616374206861732e000000000000000000000000602082015250565b6000610e91603483610dbb565b9150610e9c82610e35565b604082019050919050565b60006020820190508181036000830152610ec081610e84565b9050919050565b600081905092915050565b50565b6000610ee2600083610ec7565b9150610eed82610ed2565b600082019050919050565b6000610f0382610ed5565b9150819050919050565b7f4661696c656420746f207769746864726177206d6f6e65792066726f6d20636f60008201527f6e74726163742e00000000000000000000000000000000000000000000000000602082015250565b6000610f69602783610dbb565b9150610f7482610f0d565b604082019050919050565b60006020820190508181036000830152610f9881610f5c565b9050919050565b60006020820190508181036000830152610fb98184610dcc565b905092915050565b60006040820190508181036000830152610fdb8185610dcc565b9050610fea60208301846106aa565b9392505050565b610ffa816108c3565b82525050565b6000604082019050818103600083015261101a8185610dcc565b90506110296020830184610ff1565b939250505056fea2646970667358221220bd29c13969b6bffd7e5b8c4c450e871591ac43045956308c81366ab0eca26ea264736f6c63430008110033534d41525420434f4e54524143542048455245205245504f5254494e4720464f5220445554592c205741474d492e",
  "linkReferences": {},
  "deployedLinkReferences": {}
}